{
  "address": "0x768c58F98E90eaE2928018306ec46890AF5dfBEF",
  "abi": [
    {
      "inputs": [
        {
          "internalType": "address",
          "name": "target",
          "type": "address"
        }
      ],
      "name": "AddressEmptyCode",
      "type": "error"
    },
    {
      "inputs": [],
      "name": "FailedInnerCall",
      "type": "error"
    },
    {
      "inputs": [
        {
          "internalType": "uint256",
          "name": "_itemId",
          "type": "uint256"
        }
      ],
      "name": "Admin_itemGet",
      "outputs": [
        {
          "internalType": "uint256",
          "name": "",
          "type": "uint256"
        },
        {
          "internalType": "uint256",
          "name": "",
          "type": "uint256"
        }
      ],
      "stateMutability": "view",
      "type": "function"
    },
    {
      "inputs": [
        {
          "internalType": "uint256",
          "name": "_itemId",
          "type": "uint256"
        },
        {
          "internalType": "uint256",
          "name": "_price",
          "type": "uint256"
        }
      ],
      "name": "Admin_itemSet",
      "outputs": [],
      "stateMutability": "nonpayable",
      "type": "function"
    },
    {
      "inputs": [
        {
          "internalType": "string",
          "name": "_contractName",
          "type": "string"
        },
        {
          "internalType": "address",
          "name": "_contractAddress",
          "type": "address"
        }
      ],
      "name": "Admin_setContract",
      "outputs": [],
      "stateMutability": "nonpayable",
      "type": "function"
    },
    {
      "inputs": [
        {
          "internalType": "string",
          "name": "_contractName",
          "type": "string"
        }
      ],
      "name": "getContract",
      "outputs": [
        {
          "internalType": "address",
          "name": "",
          "type": "address"
        }
      ],
      "stateMutability": "view",
      "type": "function"
    },
    {
      "inputs": [
        {
          "internalType": "bytes[]",
          "name": "data",
          "type": "bytes[]"
        }
      ],
      "name": "multicall",
      "outputs": [
        {
          "internalType": "bytes[]",
          "name": "results",
          "type": "bytes[]"
        }
      ],
      "stateMutability": "nonpayable",
      "type": "function"
    }
  ],
  "transactionHash": "0x402993429198a01d2c29dfa9d8d43523fbd6e3dee90d950a148ec545c299107d",
  "args": [],
  "numDeployments": 2,
  "solcInputHash": "1d5f1b9e7001dcbe09b38b982c366313",
  "bytecode": "0x608060405234801561001057600080fd5b50610790806100206000396000f3fe608060405234801561001057600080fd5b50600436106100575760003560e01c80632911a3661461005c578063358177731461009e578063ac9650d8146100c9578063bd8d6465146100e9578063d8f2daaa146100fe575b600080fd5b61008461006a366004610427565b600090815260026020526040902080546001909101549091565b604080519283526020830191909152015b60405180910390f35b6100b16100ac3660046104e3565b610111565b6040516001600160a01b039091168152602001610095565b6100dc6100d7366004610520565b610144565b60405161009591906105b9565b6100fc6100f7366004610633565b61022c565b005b6100fc61010c366004610655565b61024d565b6000806000018260405161012591906106b3565b908152604051908190036020019020546001600160a01b031692915050565b6040805160008152602081019091526060908267ffffffffffffffff81111561016f5761016f610440565b6040519080825280602002602001820160405280156101a257816020015b606081526020019060019003908161018d5790505b50915060005b83811015610224576101ff308686848181106101c6576101c66106cf565b90506020028101906101d891906106e5565b856040516020016101eb93929190610733565b60405160208183030381529060405261029b565b838281518110610211576102116106cf565b60209081029190910101526001016101a8565b505092915050565b610234610311565b6000828152600260205260409020918255600190910155565b610255610311565b80600080018360405161026891906106b3565b90815260405190819003602001902080546001600160a01b03929092166001600160a01b03199092169190911790555050565b6060600080846001600160a01b0316846040516102b891906106b3565b600060405180830381855af49150503d80600081146102f3576040519150601f19603f3d011682016040523d82523d6000602084013e6102f8565b606091505b509150915061030885838361039f565b95945050505050565b7fc8fcad8db84d3cc18b4c41d551ea0ee66dd599cde068d998e57d5e09332c131c600401546001600160a01b0316331461039d5760405162461bcd60e51b815260206004820152602260248201527f4c69624469616d6f6e643a204d75737420626520636f6e7472616374206f776e60448201526132b960f11b60648201526084015b60405180910390fd5b565b6060826103b4576103af826103fe565b6103f7565b81511580156103cb57506001600160a01b0384163b155b156103f457604051639996b31560e01b81526001600160a01b0385166004820152602401610394565b50805b9392505050565b80511561040e5780518082602001fd5b604051630a12f52160e11b815260040160405180910390fd5b60006020828403121561043957600080fd5b5035919050565b634e487b7160e01b600052604160045260246000fd5b600082601f83011261046757600080fd5b813567ffffffffffffffff8082111561048257610482610440565b604051601f8301601f19908116603f011681019082821181831017156104aa576104aa610440565b816040528381528660208588010111156104c357600080fd5b836020870160208301376000602085830101528094505050505092915050565b6000602082840312156104f557600080fd5b813567ffffffffffffffff81111561050c57600080fd5b61051884828501610456565b949350505050565b6000806020838503121561053357600080fd5b823567ffffffffffffffff8082111561054b57600080fd5b818501915085601f83011261055f57600080fd5b81358181111561056e57600080fd5b8660208260051b850101111561058357600080fd5b60209290920196919550909350505050565b60005b838110156105b0578181015183820152602001610598565b50506000910152565b6000602080830181845280855180835260408601915060408160051b870101925083870160005b8281101561062657878503603f1901845281518051808752610607818989018a8501610595565b601f01601f1916959095018601945092850192908501906001016105e0565b5092979650505050505050565b6000806040838503121561064657600080fd5b50508035926020909101359150565b6000806040838503121561066857600080fd5b823567ffffffffffffffff81111561067f57600080fd5b61068b85828601610456565b92505060208301356001600160a01b03811681146106a857600080fd5b809150509250929050565b600082516106c5818460208701610595565b9190910192915050565b634e487b7160e01b600052603260045260246000fd5b6000808335601e198436030181126106fc57600080fd5b83018035915067ffffffffffffffff82111561071757600080fd5b60200191503681900382131561072c57600080fd5b9250929050565b828482376000838201600081528351610750818360208801610595565b019594505050505056fea26469706673582212202f4694c9593806a8b2eba149ad03543a6fba8858c7c9b19762c7efec474cee6c64736f6c63430008160033",
  "devdoc": {
    "errors": {
      "AddressEmptyCode(address)": [
        {
          "details": "There's no code at `target` (it is not a contract)."
        }
      ],
      "FailedInnerCall()": [
        {
          "details": "A call to an address target failed. The target may have reverted."
        }
      ]
    },
    "kind": "dev",
    "methods": {
      "multicall(bytes[])": {
        "custom:oz-upgrades-unsafe-allow-reachable": "delegatecall",
        "details": "Receives and executes a batch of function calls on this contract."
      }
    },
    "version": 1
  },
  "userdoc": {
    "kind": "user",
    "methods": {},
    "version": 1
  },
  "storageLayout": {
    "storage": [
      {
        "astId": 452,
        "contract": "contracts/openforge/adminFacet.sol:AdminFacet",
        "label": "s",
        "offset": 0,
        "slot": "0",
        "type": "t_struct(AppStorage)2056_storage"
      }
    ],
    "types": {
      "t_address": {
        "encoding": "inplace",
        "label": "address",
        "numberOfBytes": "20"
      },
      "t_mapping(t_address,t_struct(User)2036_storage)": {
        "encoding": "mapping",
        "key": "t_address",
        "label": "mapping(address => struct User)",
        "numberOfBytes": "32",
        "value": "t_struct(User)2036_storage"
      },
      "t_mapping(t_string_memory_ptr,t_address)": {
        "encoding": "mapping",
        "key": "t_string_memory_ptr",
        "label": "mapping(string => address)",
        "numberOfBytes": "32",
        "value": "t_address"
      },
      "t_mapping(t_uint256,t_struct(Item)2041_storage)": {
        "encoding": "mapping",
        "key": "t_uint256",
        "label": "mapping(uint256 => struct Item)",
        "numberOfBytes": "32",
        "value": "t_struct(Item)2041_storage"
      },
      "t_string_memory_ptr": {
        "encoding": "bytes",
        "label": "string",
        "numberOfBytes": "32"
      },
      "t_string_storage": {
        "encoding": "bytes",
        "label": "string",
        "numberOfBytes": "32"
      },
      "t_struct(AppStorage)2056_storage": {
        "encoding": "inplace",
        "label": "struct AppStorage",
        "members": [
          {
            "astId": 2045,
            "contract": "contracts/openforge/adminFacet.sol:AdminFacet",
            "label": "contracts",
            "offset": 0,
            "slot": "0",
            "type": "t_mapping(t_string_memory_ptr,t_address)"
          },
          {
            "astId": 2050,
            "contract": "contracts/openforge/adminFacet.sol:AdminFacet",
            "label": "users",
            "offset": 0,
            "slot": "1",
            "type": "t_mapping(t_address,t_struct(User)2036_storage)"
          },
          {
            "astId": 2055,
            "contract": "contracts/openforge/adminFacet.sol:AdminFacet",
            "label": "items",
            "offset": 0,
            "slot": "2",
            "type": "t_mapping(t_uint256,t_struct(Item)2041_storage)"
          }
        ],
        "numberOfBytes": "96"
      },
      "t_struct(Item)2041_storage": {
        "encoding": "inplace",
        "label": "struct Item",
        "members": [
          {
            "astId": 2038,
            "contract": "contracts/openforge/adminFacet.sol:AdminFacet",
            "label": "itemId",
            "offset": 0,
            "slot": "0",
            "type": "t_uint256"
          },
          {
            "astId": 2040,
            "contract": "contracts/openforge/adminFacet.sol:AdminFacet",
            "label": "price",
            "offset": 0,
            "slot": "1",
            "type": "t_uint256"
          }
        ],
        "numberOfBytes": "64"
      },
      "t_struct(User)2036_storage": {
        "encoding": "inplace",
        "label": "struct User",
        "members": [
          {
            "astId": 2033,
            "contract": "contracts/openforge/adminFacet.sol:AdminFacet",
            "label": "name",
            "offset": 0,
            "slot": "0",
            "type": "t_string_storage"
          },
          {
            "astId": 2035,
            "contract": "contracts/openforge/adminFacet.sol:AdminFacet",
            "label": "tokenId",
            "offset": 0,
            "slot": "1",
            "type": "t_uint256"
          }
        ],
        "numberOfBytes": "64"
      },
      "t_uint256": {
        "encoding": "inplace",
        "label": "uint256",
        "numberOfBytes": "32"
      }
    }
  }
}