{
  "address": "0x725E0fd188B1C9B2ff64F9f33BD1b16Cc8F92377",
  "abi": [
    {
      "inputs": [],
      "name": "ReentrancyGuardReentrantCall",
      "type": "error"
    },
    {
      "inputs": [
        {
          "internalType": "uint256",
          "name": "payAmount",
          "type": "uint256"
        }
      ],
      "name": "pay",
      "outputs": [
        {
          "internalType": "uint256",
          "name": "",
          "type": "uint256"
        }
      ],
      "stateMutability": "payable",
      "type": "function"
    },
    {
      "inputs": [
        {
          "internalType": "address",
          "name": "_sender",
          "type": "address"
        },
        {
          "internalType": "uint256",
          "name": "reFundAmount",
          "type": "uint256"
        }
      ],
      "name": "reFund",
      "outputs": [
        {
          "internalType": "uint256",
          "name": "",
          "type": "uint256"
        },
        {
          "internalType": "uint256",
          "name": "",
          "type": "uint256"
        }
      ],
      "stateMutability": "nonpayable",
      "type": "function"
    }
  ],
  "transactionHash": "0x1b9f38e1d0459c85b3e7fc7901b3a3eff9d2cbe7510fd444fdadeeb1295b217d",
  "args": [],
  "numDeployments": 44,
  "solcInputHash": "28981b9602cc1820c8fd4b0712cd8837",
  "bytecode": "0x608060405234801561001057600080fd5b506001600055610531806100256000396000f3fe6080604052600436106100295760003560e01c8063c290d6911461002e578063e557498b14610054575b600080fd5b61004161003c3660046103ce565b610089565b6040519081526020015b60405180910390f35b34801561006057600080fd5b5061007461006f3660046103e7565b6102af565b6040805192835260208301919091520161004b565b6006546005546040805160c081018252600080825260208201869052818301869052600480546001600160a01b03908116606085015230608085015260a08401839052935163603fae1960e11b8152919584169490931692839163c07f5c329188916100f79186910161041f565b60206040518083038185885af1158015610115573d6000803e3d6000fd5b50505050506040513d601f19601f8201168201806040525081019061013a9190610470565b506040516370a0823160e01b81523060048201526000906001600160a01b038516906370a0823190602401602060405180830381865afa158015610182573d6000803e3d6000fd5b505050506040513d601f19601f820116820180604052508101906101a69190610470565b90506000806101b483610380565b60075460405163a9059cbb60e01b81526001600160a01b0391821660048201526024810183905292945090925087169063a9059cbb906044016020604051808303816000875af115801561020c573d6000803e3d6000fd5b505050506040513d601f19601f820116820180604052508101906102309190610489565b5060405163a9059cbb60e01b8152336004820152602481018390526001600160a01b0387169063a9059cbb906044016020604051808303816000875af115801561027e573d6000803e3d6000fd5b505050506040513d601f19601f820116820180604052508101906102a29190610489565b5090979650505050505050565b6000806102ba6103a4565b6005546040805160c0810182526006546001600160a01b03908116825260208201879052600a8284015260048054821660608401528882166080840152600160a0840152925163603fae1960e11b81529316929091839163c07f5c32916103239185910161041f565b6020604051808303816000875af1158015610342573d6000803e3d6000fd5b505050506040513d601f19601f820116820180604052508101906103669190610470565b5084439350935050506103796001600055565b9250929050565b6000808061038f6064856104b2565b905061039b81856104d4565b94909350915050565b6002600054036103c757604051633ee5aeb560e01b815260040160405180910390fd5b6002600055565b6000602082840312156103e057600080fd5b5035919050565b600080604083850312156103fa57600080fd5b82356001600160a01b038116811461041157600080fd5b946020939093013593505050565b81516001600160a01b03908116825260208084015190830152604080840151908301526060808401518216908301526080808401519091169082015260a09182015115159181019190915260c00190565b60006020828403121561048257600080fd5b5051919050565b60006020828403121561049b57600080fd5b815180151581146104ab57600080fd5b9392505050565b6000826104cf57634e487b7160e01b600052601260045260246000fd5b500490565b818103818111156104f557634e487b7160e01b600052601160045260246000fd5b9291505056fea26469706673582212205c6d5a810c304677c5c293217072817b5b36fd5f6755fca1d16430371d11a9d464736f6c63430008160033",
  "devdoc": {
    "errors": {
      "ReentrancyGuardReentrantCall()": [
        {
          "details": "Unauthorized reentrant call."
        }
      ]
    },
    "kind": "dev",
    "methods": {},
    "version": 1
  },
  "userdoc": {
    "kind": "user",
    "methods": {},
    "version": 1
  },
  "storageLayout": {
    "storage": [
      {
        "astId": 4423,
        "contract": "contracts/originforge/paymentFacet.sol:PaymentFacet",
        "label": "_status",
        "offset": 0,
        "slot": "0",
        "type": "t_uint256"
      },
      {
        "astId": 10059,
        "contract": "contracts/originforge/paymentFacet.sol:PaymentFacet",
        "label": "s",
        "offset": 0,
        "slot": "1",
        "type": "t_struct(AppStorage)10644_storage"
      },
      {
        "astId": 10061,
        "contract": "contracts/originforge/paymentFacet.sol:PaymentFacet",
        "label": "gcPool",
        "offset": 0,
        "slot": "4",
        "type": "t_address"
      },
      {
        "astId": 10063,
        "contract": "contracts/originforge/paymentFacet.sol:PaymentFacet",
        "label": "pangeaRouter",
        "offset": 0,
        "slot": "5",
        "type": "t_address"
      },
      {
        "astId": 10065,
        "contract": "contracts/originforge/paymentFacet.sol:PaymentFacet",
        "label": "gcKlay",
        "offset": 0,
        "slot": "6",
        "type": "t_address"
      },
      {
        "astId": 10067,
        "contract": "contracts/originforge/paymentFacet.sol:PaymentFacet",
        "label": "bank",
        "offset": 0,
        "slot": "7",
        "type": "t_address"
      }
    ],
    "types": {
      "t_address": {
        "encoding": "inplace",
        "label": "address",
        "numberOfBytes": "20"
      },
      "t_mapping(t_address,t_struct(User)10624_storage)": {
        "encoding": "mapping",
        "key": "t_address",
        "label": "mapping(address => struct User)",
        "numberOfBytes": "32",
        "value": "t_struct(User)10624_storage"
      },
      "t_mapping(t_string_memory_ptr,t_address)": {
        "encoding": "mapping",
        "key": "t_string_memory_ptr",
        "label": "mapping(string => address)",
        "numberOfBytes": "32",
        "value": "t_address"
      },
      "t_mapping(t_uint256,t_struct(Item)10629_storage)": {
        "encoding": "mapping",
        "key": "t_uint256",
        "label": "mapping(uint256 => struct Item)",
        "numberOfBytes": "32",
        "value": "t_struct(Item)10629_storage"
      },
      "t_string_memory_ptr": {
        "encoding": "bytes",
        "label": "string",
        "numberOfBytes": "32"
      },
      "t_string_storage": {
        "encoding": "bytes",
        "label": "string",
        "numberOfBytes": "32"
      },
      "t_struct(AppStorage)10644_storage": {
        "encoding": "inplace",
        "label": "struct AppStorage",
        "members": [
          {
            "astId": 10633,
            "contract": "contracts/originforge/paymentFacet.sol:PaymentFacet",
            "label": "contracts",
            "offset": 0,
            "slot": "0",
            "type": "t_mapping(t_string_memory_ptr,t_address)"
          },
          {
            "astId": 10638,
            "contract": "contracts/originforge/paymentFacet.sol:PaymentFacet",
            "label": "users",
            "offset": 0,
            "slot": "1",
            "type": "t_mapping(t_address,t_struct(User)10624_storage)"
          },
          {
            "astId": 10643,
            "contract": "contracts/originforge/paymentFacet.sol:PaymentFacet",
            "label": "items",
            "offset": 0,
            "slot": "2",
            "type": "t_mapping(t_uint256,t_struct(Item)10629_storage)"
          }
        ],
        "numberOfBytes": "96"
      },
      "t_struct(Item)10629_storage": {
        "encoding": "inplace",
        "label": "struct Item",
        "members": [
          {
            "astId": 10626,
            "contract": "contracts/originforge/paymentFacet.sol:PaymentFacet",
            "label": "itemId",
            "offset": 0,
            "slot": "0",
            "type": "t_uint256"
          },
          {
            "astId": 10628,
            "contract": "contracts/originforge/paymentFacet.sol:PaymentFacet",
            "label": "price",
            "offset": 0,
            "slot": "1",
            "type": "t_uint256"
          }
        ],
        "numberOfBytes": "64"
      },
      "t_struct(User)10624_storage": {
        "encoding": "inplace",
        "label": "struct User",
        "members": [
          {
            "astId": 10621,
            "contract": "contracts/originforge/paymentFacet.sol:PaymentFacet",
            "label": "name",
            "offset": 0,
            "slot": "0",
            "type": "t_string_storage"
          },
          {
            "astId": 10623,
            "contract": "contracts/originforge/paymentFacet.sol:PaymentFacet",
            "label": "tokenId",
            "offset": 0,
            "slot": "1",
            "type": "t_uint256"
          }
        ],
        "numberOfBytes": "64"
      },
      "t_uint256": {
        "encoding": "inplace",
        "label": "uint256",
        "numberOfBytes": "32"
      }
    }
  }
}