{
  "address": "0x4ED28CaA76a1875956cF4736256d329edF90d3bC",
  "abi": [
    {
      "inputs": [],
      "name": "ReentrancyGuardReentrantCall",
      "type": "error"
    },
    {
      "inputs": [
        {
          "internalType": "address",
          "name": "_buyer",
          "type": "address"
        },
        {
          "internalType": "uint256",
          "name": "_itemId",
          "type": "uint256"
        },
        {
          "internalType": "uint256",
          "name": "_quantity",
          "type": "uint256"
        },
        {
          "internalType": "uint256",
          "name": "_payAmount",
          "type": "uint256"
        }
      ],
      "name": "itemBuy",
      "outputs": [
        {
          "internalType": "uint256",
          "name": "",
          "type": "uint256"
        },
        {
          "internalType": "uint256",
          "name": "",
          "type": "uint256"
        }
      ],
      "stateMutability": "nonpayable",
      "type": "function"
    },
    {
      "inputs": [
        {
          "internalType": "uint256",
          "name": "payAmount",
          "type": "uint256"
        }
      ],
      "name": "pay",
      "outputs": [
        {
          "internalType": "uint256",
          "name": "",
          "type": "uint256"
        },
        {
          "internalType": "uint256",
          "name": "",
          "type": "uint256"
        }
      ],
      "stateMutability": "payable",
      "type": "function"
    },
    {
      "inputs": [
        {
          "internalType": "address",
          "name": "_sender",
          "type": "address"
        },
        {
          "internalType": "uint256",
          "name": "reFundAmount",
          "type": "uint256"
        }
      ],
      "name": "reFund",
      "outputs": [
        {
          "internalType": "uint256",
          "name": "",
          "type": "uint256"
        },
        {
          "internalType": "uint256",
          "name": "",
          "type": "uint256"
        }
      ],
      "stateMutability": "nonpayable",
      "type": "function"
    }
  ],
  "transactionHash": "0x1b1d0b09edf3d460db80b5d6aff904853d62e2ff38a75383b953a3bdf220550a",
  "args": [],
  "numDeployments": 43,
  "solcInputHash": "d289ba9386e44c7d52c742087da38011",
  "bytecode": "0x608060405234801561001057600080fd5b506001600055610577806100256000396000f3fe6080604052600436106100345760003560e01c8063a3b544d914610039578063c290d69114610072578063e557498b14610085575b600080fd5b34801561004557600080fd5b50610059610054366004610430565b6100a5565b6040805192835260208301919091520160405180910390f35b610059610080366004610469565b61025d565b34801561009157600080fd5b506100596100a0366004610482565b610319565b6000806100b06103ea565b604051636974656d60e01b815260009060019060040190815260408051602092819003830190205460008981526003909352908220600101546001600160a01b0390911692506101019087906104ac565b6005546040805160c0810182526006546001600160a01b03908116825260208201859052600a8284015260048054821660608401526007548216608080850191909152600160a0850152935163731133e960e01b81528e831691810191909152602481018d9052604481018c90526064810193909352600360848401526203078360ec1b60a48401529394509183169285169063731133e99060c401600060405180830381600087803b1580156101b757600080fd5b505af11580156101cb573d6000803e3d6000fd5b505060405163603fae1960e11b81526001600160a01b038516925063c07f5c32915085906101fd9085906004016104d7565b60206040518083038185885af115801561021b573d6000803e3d6000fd5b50505050506040513d601f19601f820116820180604052508101906102409190610528565b509194504393505050506102546001600055565b94509492505050565b6005546040805160c081018252600080825260208201859052818301859052600480546001600160a01b0390811660608501526007548116608085015260a08401839052935163603fae1960e11b815291948594169291839163c07f5c329188916102ca918691016104d7565b60206040518083038185885af11580156102e8573d6000803e3d6000fd5b50505050506040513d601f19601f8201168201806040525081019061030d9190610528565b50939443945092505050565b6000806103246103ea565b6005546040805160c0810182526006546001600160a01b03908116825260208201879052600a8284015260048054821660608401528882166080840152600160a0840152925163603fae1960e11b81529316929091839163c07f5c329161038d918591016104d7565b6020604051808303816000875af11580156103ac573d6000803e3d6000fd5b505050506040513d601f19601f820116820180604052508101906103d09190610528565b5084439350935050506103e36001600055565b9250929050565b60026000540361040d57604051633ee5aeb560e01b815260040160405180910390fd5b6002600055565b80356001600160a01b038116811461042b57600080fd5b919050565b6000806000806080858703121561044657600080fd5b61044f85610414565b966020860135965060408601359560600135945092505050565b60006020828403121561047b57600080fd5b5035919050565b6000806040838503121561049557600080fd5b61049e83610414565b946020939093013593505050565b80820281158282048414176104d157634e487b7160e01b600052601160045260246000fd5b92915050565b81516001600160a01b03908116825260208084015190830152604080840151908301526060808401518216908301526080808401519091169082015260a09182015115159181019190915260c00190565b60006020828403121561053a57600080fd5b505191905056fea26469706673582212206a1928fd9d68393728a5d540ffba2827bc5c620a66b3630737e2481d4f12e95564736f6c63430008160033",
  "devdoc": {
    "errors": {
      "ReentrancyGuardReentrantCall()": [
        {
          "details": "Unauthorized reentrant call."
        }
      ]
    },
    "kind": "dev",
    "methods": {},
    "version": 1
  },
  "userdoc": {
    "kind": "user",
    "methods": {},
    "version": 1
  },
  "storageLayout": {
    "storage": [
      {
        "astId": 10,
        "contract": "contracts/originforge/paymentFacet.sol:PaymentFacet",
        "label": "_status",
        "offset": 0,
        "slot": "0",
        "type": "t_uint256"
      },
      {
        "astId": 86,
        "contract": "contracts/originforge/paymentFacet.sol:PaymentFacet",
        "label": "s",
        "offset": 0,
        "slot": "1",
        "type": "t_struct(AppStorage)692_storage"
      },
      {
        "astId": 88,
        "contract": "contracts/originforge/paymentFacet.sol:PaymentFacet",
        "label": "gcPool",
        "offset": 0,
        "slot": "4",
        "type": "t_address"
      },
      {
        "astId": 90,
        "contract": "contracts/originforge/paymentFacet.sol:PaymentFacet",
        "label": "pangeaRouter",
        "offset": 0,
        "slot": "5",
        "type": "t_address"
      },
      {
        "astId": 92,
        "contract": "contracts/originforge/paymentFacet.sol:PaymentFacet",
        "label": "gcKlay",
        "offset": 0,
        "slot": "6",
        "type": "t_address"
      },
      {
        "astId": 94,
        "contract": "contracts/originforge/paymentFacet.sol:PaymentFacet",
        "label": "bank",
        "offset": 0,
        "slot": "7",
        "type": "t_address"
      }
    ],
    "types": {
      "t_address": {
        "encoding": "inplace",
        "label": "address",
        "numberOfBytes": "20"
      },
      "t_mapping(t_address,t_struct(User)672_storage)": {
        "encoding": "mapping",
        "key": "t_address",
        "label": "mapping(address => struct User)",
        "numberOfBytes": "32",
        "value": "t_struct(User)672_storage"
      },
      "t_mapping(t_string_memory_ptr,t_address)": {
        "encoding": "mapping",
        "key": "t_string_memory_ptr",
        "label": "mapping(string => address)",
        "numberOfBytes": "32",
        "value": "t_address"
      },
      "t_mapping(t_uint256,t_struct(Item)677_storage)": {
        "encoding": "mapping",
        "key": "t_uint256",
        "label": "mapping(uint256 => struct Item)",
        "numberOfBytes": "32",
        "value": "t_struct(Item)677_storage"
      },
      "t_string_memory_ptr": {
        "encoding": "bytes",
        "label": "string",
        "numberOfBytes": "32"
      },
      "t_string_storage": {
        "encoding": "bytes",
        "label": "string",
        "numberOfBytes": "32"
      },
      "t_struct(AppStorage)692_storage": {
        "encoding": "inplace",
        "label": "struct AppStorage",
        "members": [
          {
            "astId": 681,
            "contract": "contracts/originforge/paymentFacet.sol:PaymentFacet",
            "label": "contracts",
            "offset": 0,
            "slot": "0",
            "type": "t_mapping(t_string_memory_ptr,t_address)"
          },
          {
            "astId": 686,
            "contract": "contracts/originforge/paymentFacet.sol:PaymentFacet",
            "label": "users",
            "offset": 0,
            "slot": "1",
            "type": "t_mapping(t_address,t_struct(User)672_storage)"
          },
          {
            "astId": 691,
            "contract": "contracts/originforge/paymentFacet.sol:PaymentFacet",
            "label": "items",
            "offset": 0,
            "slot": "2",
            "type": "t_mapping(t_uint256,t_struct(Item)677_storage)"
          }
        ],
        "numberOfBytes": "96"
      },
      "t_struct(Item)677_storage": {
        "encoding": "inplace",
        "label": "struct Item",
        "members": [
          {
            "astId": 674,
            "contract": "contracts/originforge/paymentFacet.sol:PaymentFacet",
            "label": "itemId",
            "offset": 0,
            "slot": "0",
            "type": "t_uint256"
          },
          {
            "astId": 676,
            "contract": "contracts/originforge/paymentFacet.sol:PaymentFacet",
            "label": "price",
            "offset": 0,
            "slot": "1",
            "type": "t_uint256"
          }
        ],
        "numberOfBytes": "64"
      },
      "t_struct(User)672_storage": {
        "encoding": "inplace",
        "label": "struct User",
        "members": [
          {
            "astId": 669,
            "contract": "contracts/originforge/paymentFacet.sol:PaymentFacet",
            "label": "name",
            "offset": 0,
            "slot": "0",
            "type": "t_string_storage"
          },
          {
            "astId": 671,
            "contract": "contracts/originforge/paymentFacet.sol:PaymentFacet",
            "label": "tokenId",
            "offset": 0,
            "slot": "1",
            "type": "t_uint256"
          }
        ],
        "numberOfBytes": "64"
      },
      "t_uint256": {
        "encoding": "inplace",
        "label": "uint256",
        "numberOfBytes": "32"
      }
    }
  }
}