{
  "address": "0xEE89a075A003c47234287d30bEce79A660d7733d",
  "abi": [
    {
      "inputs": [],
      "name": "ReentrancyGuardReentrantCall",
      "type": "error"
    },
    {
      "inputs": [
        {
          "internalType": "address",
          "name": "_buyer",
          "type": "address"
        },
        {
          "internalType": "uint256",
          "name": "_itemId",
          "type": "uint256"
        },
        {
          "internalType": "uint256",
          "name": "_quantity",
          "type": "uint256"
        },
        {
          "internalType": "uint256",
          "name": "_payAmount",
          "type": "uint256"
        }
      ],
      "name": "itemBuy",
      "outputs": [
        {
          "internalType": "uint256",
          "name": "",
          "type": "uint256"
        },
        {
          "internalType": "uint256",
          "name": "",
          "type": "uint256"
        }
      ],
      "stateMutability": "nonpayable",
      "type": "function"
    },
    {
      "inputs": [
        {
          "internalType": "uint256",
          "name": "payAmount",
          "type": "uint256"
        }
      ],
      "name": "pay",
      "outputs": [
        {
          "internalType": "uint256",
          "name": "",
          "type": "uint256"
        },
        {
          "internalType": "uint256",
          "name": "",
          "type": "uint256"
        }
      ],
      "stateMutability": "payable",
      "type": "function"
    },
    {
      "inputs": [
        {
          "internalType": "address",
          "name": "_sender",
          "type": "address"
        },
        {
          "internalType": "uint256",
          "name": "reFundAmount",
          "type": "uint256"
        }
      ],
      "name": "reFund",
      "outputs": [
        {
          "internalType": "uint256",
          "name": "",
          "type": "uint256"
        },
        {
          "internalType": "uint256",
          "name": "",
          "type": "uint256"
        }
      ],
      "stateMutability": "nonpayable",
      "type": "function"
    }
  ],
  "transactionHash": "0x6da16f90dd1b6d0820303230eb82076dddf8aec525607660dac71f14949af5ba",
  "args": [],
  "numDeployments": 15,
  "solcInputHash": "4b10b8c271bf31e7e3ae429fd3a16fe9",
  "bytecode": "0x608060405234801561001057600080fd5b506001600055610874806100256000396000f3fe6080604052600436106100345760003560e01c8063a3b544d914610039578063c290d69114610072578063e557498b14610085575b600080fd5b34801561004557600080fd5b5061005961005436600461072d565b6100a5565b6040805192835260208301919091520160405180910390f35b610059610080366004610766565b61038b565b34801561009157600080fd5b506100596100a036600461077f565b610539565b6000806100b06106e7565b604051636974656d60e01b815260009060019060040190815260408051602092819003830190205460008981526003909352908220600101546001600160a01b0390911692506101019087906107a9565b600088815260036020526040812060010154919250036101685760405162461bcd60e51b815260206004820152601c60248201527f5061796d656e7446616365743a206974656d206e6f7420666f756e640000000060448201526064015b60405180910390fd5b808510156101b85760405162461bcd60e51b815260206004820152601f60248201527f5061796d656e7446616365743a20706179416d6f756e7420746f6f206c6f7700604482015260640161015f565b6040516b3830b733b2b0b937baba32b960a11b8152600090600190600c01908152604080519182900360200182205460c08301918290526001600160a01b0316925060009190819060019061021a906633b1ba37b5b2b760c91b815260070190565b9081526040805160209281900383019020546001600160a01b0390811684529183018b9052600a8382015280516519d8dc1bdbdb60d21b815260016006820181905282519182900360260190912054831660608501528e8316608085015260a090930192909252905163603fae1960e11b815291925083169063c07f5c32906102a79084906004016107d4565b6020604051808303816000875af11580156102c6573d6000803e3d6000fd5b505050506040513d601f19601f820116820180604052508101906102ea9190610825565b5060405163731133e960e01b81526001600160a01b038b81166004830152602482018b9052604482018a905260806064830152600360848301526203078360ec1b60a483015285169063731133e99060c401600060405180830381600087803b15801561035657600080fd5b505af115801561036a573d6000803e3d6000fd5b50505050864395509550505050506103826001600055565b94509492505050565b60008067016345785d8a000083116103e55760405162461bcd60e51b815260206004820152601d60248201527f4c69625061796d656e743a20706179416d6f756e7420746f6f206c6f77000000604482015260640161015f565b604080516b3830b733b2b0b937baba32b960a11b81526001600c820152905190819003602c018120546001600160a01b031690309085156108fc029086906000818181858888f19350505050158015610442573d6000803e3d6000fd5b506040805160c0810182526000808252602082018790526103e88284015282516519d8dc1bdbdb60d21b8152600160068201819052845191829003602601909120546001600160a01b03908116606085015284516362616e6b60e01b81526004808201939093528551908190036024019020548116608085015260a0840192909252925163603fae1960e11b815291929084169163c07f5c329188916104ea918691016107d4565b60206040518083038185885af1158015610508573d6000803e3d6000fd5b50505050506040513d601f19601f8201168201806040525081019061052d9190610825565b50939443945092505050565b6000806105446106e7565b674563918244f40000831161059b5760405162461bcd60e51b815260206004820181905260248201527f4c69625061796d656e743a20726546756e64416d6f756e7420746f6f206c6f77604482015260640161015f565b6040516b3830b733b2b0b937baba32b960a11b8152600090600190600c01908152604080519182900360200182205460c08301918290526001600160a01b031692506000919081906001906105fd906633b1ba37b5b2b760c91b815260070190565b9081526040805160209281900383019020546001600160a01b039081168452918301899052600a8382015280516519d8dc1bdbdb60d21b815260016006820181905282519182900360260190912054831660608501528a8316608085015260a090930192909252905163603fae1960e11b815291925083169063c07f5c329061068a9084906004016107d4565b6020604051808303816000875af11580156106a9573d6000803e3d6000fd5b505050506040513d601f19601f820116820180604052508101906106cd9190610825565b5084439350935050506106e06001600055565b9250929050565b60026000540361070a57604051633ee5aeb560e01b815260040160405180910390fd5b6002600055565b80356001600160a01b038116811461072857600080fd5b919050565b6000806000806080858703121561074357600080fd5b61074c85610711565b966020860135965060408601359560600135945092505050565b60006020828403121561077857600080fd5b5035919050565b6000806040838503121561079257600080fd5b61079b83610711565b946020939093013593505050565b80820281158282048414176107ce57634e487b7160e01b600052601160045260246000fd5b92915050565b81516001600160a01b03908116825260208084015190830152604080840151908301526060808401518216908301526080808401519091169082015260a09182015115159181019190915260c00190565b60006020828403121561083757600080fd5b505191905056fea2646970667358221220c089b0c84760e17de3869f0eb8773fbe5bcbe251867c8803a2b3bbf54eeb30d664736f6c63430008160033",
  "devdoc": {
    "errors": {
      "ReentrancyGuardReentrantCall()": [
        {
          "details": "Unauthorized reentrant call."
        }
      ]
    },
    "kind": "dev",
    "methods": {},
    "version": 1
  },
  "userdoc": {
    "kind": "user",
    "methods": {},
    "version": 1
  },
  "storageLayout": {
    "storage": [
      {
        "astId": 10,
        "contract": "contracts/openforge/paymentFacet.sol:PaymentFacet",
        "label": "_status",
        "offset": 0,
        "slot": "0",
        "type": "t_uint256"
      },
      {
        "astId": 86,
        "contract": "contracts/openforge/paymentFacet.sol:PaymentFacet",
        "label": "s",
        "offset": 0,
        "slot": "1",
        "type": "t_struct(AppStorage)752_storage"
      }
    ],
    "types": {
      "t_address": {
        "encoding": "inplace",
        "label": "address",
        "numberOfBytes": "20"
      },
      "t_mapping(t_address,t_struct(User)732_storage)": {
        "encoding": "mapping",
        "key": "t_address",
        "label": "mapping(address => struct User)",
        "numberOfBytes": "32",
        "value": "t_struct(User)732_storage"
      },
      "t_mapping(t_string_memory_ptr,t_address)": {
        "encoding": "mapping",
        "key": "t_string_memory_ptr",
        "label": "mapping(string => address)",
        "numberOfBytes": "32",
        "value": "t_address"
      },
      "t_mapping(t_uint256,t_struct(Item)737_storage)": {
        "encoding": "mapping",
        "key": "t_uint256",
        "label": "mapping(uint256 => struct Item)",
        "numberOfBytes": "32",
        "value": "t_struct(Item)737_storage"
      },
      "t_string_memory_ptr": {
        "encoding": "bytes",
        "label": "string",
        "numberOfBytes": "32"
      },
      "t_string_storage": {
        "encoding": "bytes",
        "label": "string",
        "numberOfBytes": "32"
      },
      "t_struct(AppStorage)752_storage": {
        "encoding": "inplace",
        "label": "struct AppStorage",
        "members": [
          {
            "astId": 741,
            "contract": "contracts/openforge/paymentFacet.sol:PaymentFacet",
            "label": "contracts",
            "offset": 0,
            "slot": "0",
            "type": "t_mapping(t_string_memory_ptr,t_address)"
          },
          {
            "astId": 746,
            "contract": "contracts/openforge/paymentFacet.sol:PaymentFacet",
            "label": "users",
            "offset": 0,
            "slot": "1",
            "type": "t_mapping(t_address,t_struct(User)732_storage)"
          },
          {
            "astId": 751,
            "contract": "contracts/openforge/paymentFacet.sol:PaymentFacet",
            "label": "items",
            "offset": 0,
            "slot": "2",
            "type": "t_mapping(t_uint256,t_struct(Item)737_storage)"
          }
        ],
        "numberOfBytes": "96"
      },
      "t_struct(Item)737_storage": {
        "encoding": "inplace",
        "label": "struct Item",
        "members": [
          {
            "astId": 734,
            "contract": "contracts/openforge/paymentFacet.sol:PaymentFacet",
            "label": "itemId",
            "offset": 0,
            "slot": "0",
            "type": "t_uint256"
          },
          {
            "astId": 736,
            "contract": "contracts/openforge/paymentFacet.sol:PaymentFacet",
            "label": "price",
            "offset": 0,
            "slot": "1",
            "type": "t_uint256"
          }
        ],
        "numberOfBytes": "64"
      },
      "t_struct(User)732_storage": {
        "encoding": "inplace",
        "label": "struct User",
        "members": [
          {
            "astId": 729,
            "contract": "contracts/openforge/paymentFacet.sol:PaymentFacet",
            "label": "name",
            "offset": 0,
            "slot": "0",
            "type": "t_string_storage"
          },
          {
            "astId": 731,
            "contract": "contracts/openforge/paymentFacet.sol:PaymentFacet",
            "label": "tokenId",
            "offset": 0,
            "slot": "1",
            "type": "t_uint256"
          }
        ],
        "numberOfBytes": "64"
      },
      "t_uint256": {
        "encoding": "inplace",
        "label": "uint256",
        "numberOfBytes": "32"
      }
    }
  }
}