{
  "address": "0x6Fb10532180e0c4F79e2C7C6310c12C8605fED89",
  "abi": [
    {
      "inputs": [
        {
          "internalType": "string",
          "name": "_name",
          "type": "string"
        }
      ],
      "name": "Register_registerUser",
      "outputs": [],
      "stateMutability": "nonpayable",
      "type": "function"
    },
    {
      "inputs": [],
      "name": "Register_userGet",
      "outputs": [
        {
          "internalType": "string",
          "name": "",
          "type": "string"
        },
        {
          "internalType": "uint256",
          "name": "",
          "type": "uint256"
        }
      ],
      "stateMutability": "view",
      "type": "function"
    }
  ],
  "transactionHash": "0x35830ce4b7ae72bcd3d6b4befd5d93e33a8a75766117dec7814ef020a598b548",
  "args": [],
  "numDeployments": 3,
  "solcInputHash": "a9d64e3b2caa973857028bc3906ba939",
  "bytecode": "0x608060405234801561001057600080fd5b506104b2806100206000396000f3fe608060405234801561001057600080fd5b50600436106100365760003560e01c806322df02971461003b57806360781c501461005a575b600080fd5b61004361006f565b6040516100519291906101fc565b60405180910390f35b61006d610068366004610267565b61011f565b005b3360009081526001602081905260408220908101548154606093929190829061009790610318565b80601f01602080910402602001604051908101604052809291908181526020018280546100c390610318565b80156101105780601f106100e557610100808354040283529160200191610110565b820191906000526020600020905b8154815290600101906020018083116100f357829003601f168201915b50505050509150915091509091565b33600090815260016020526040902061013882826103a3565b50604051621cd89d60ea1b815260009081906003019081526040805191829003602001822054636902622f60e11b8352336004840152602483019190915260016044830152602d60f81b60648301526001600160a01b03169150600090829063d204c45e906084016020604051808303816000875af11580156101bf573d6000803e3d6000fd5b505050506040513d601f19601f820116820180604052508101906101e39190610463565b3360009081526001602081905260409091200155505050565b604081526000835180604084015260005b8181101561022a576020818701810151606086840101520161020d565b506000606082850101526060601f19601f8301168401019150508260208301529392505050565b634e487b7160e01b600052604160045260246000fd5b60006020828403121561027957600080fd5b813567ffffffffffffffff8082111561029157600080fd5b818401915084601f8301126102a557600080fd5b8135818111156102b7576102b7610251565b604051601f8201601f19908116603f011681019083821181831017156102df576102df610251565b816040528281528760208487010111156102f857600080fd5b826020860160208301376000928101602001929092525095945050505050565b600181811c9082168061032c57607f821691505b60208210810361034c57634e487b7160e01b600052602260045260246000fd5b50919050565b601f82111561039e576000816000526020600020601f850160051c8101602086101561037b5750805b601f850160051c820191505b8181101561039a57828155600101610387565b5050505b505050565b815167ffffffffffffffff8111156103bd576103bd610251565b6103d1816103cb8454610318565b84610352565b602080601f83116001811461040657600084156103ee5750858301515b600019600386901b1c1916600185901b17855561039a565b600085815260208120601f198616915b8281101561043557888601518255948401946001909101908401610416565b50858210156104535787850151600019600388901b60f8161c191681555b5050505050600190811b01905550565b60006020828403121561047557600080fd5b505191905056fea2646970667358221220a3853049d2dbf5a6d498eda0fef468ce7150c5a5e88918895e5871bc48d006e364736f6c63430008160033",
  "devdoc": {
    "kind": "dev",
    "methods": {},
    "version": 1
  },
  "userdoc": {
    "kind": "user",
    "methods": {},
    "version": 1
  },
  "storageLayout": {
    "storage": [
      {
        "astId": 10508,
        "contract": "contracts/originforge/registerFacet.sol:RegisterFacet",
        "label": "s",
        "offset": 0,
        "slot": "0",
        "type": "t_struct(AppStorage)11999_storage"
      }
    ],
    "types": {
      "t_address": {
        "encoding": "inplace",
        "label": "address",
        "numberOfBytes": "20"
      },
      "t_mapping(t_address,t_struct(User)11979_storage)": {
        "encoding": "mapping",
        "key": "t_address",
        "label": "mapping(address => struct User)",
        "numberOfBytes": "32",
        "value": "t_struct(User)11979_storage"
      },
      "t_mapping(t_string_memory_ptr,t_address)": {
        "encoding": "mapping",
        "key": "t_string_memory_ptr",
        "label": "mapping(string => address)",
        "numberOfBytes": "32",
        "value": "t_address"
      },
      "t_mapping(t_uint256,t_struct(Item)11984_storage)": {
        "encoding": "mapping",
        "key": "t_uint256",
        "label": "mapping(uint256 => struct Item)",
        "numberOfBytes": "32",
        "value": "t_struct(Item)11984_storage"
      },
      "t_string_memory_ptr": {
        "encoding": "bytes",
        "label": "string",
        "numberOfBytes": "32"
      },
      "t_string_storage": {
        "encoding": "bytes",
        "label": "string",
        "numberOfBytes": "32"
      },
      "t_struct(AppStorage)11999_storage": {
        "encoding": "inplace",
        "label": "struct AppStorage",
        "members": [
          {
            "astId": 11988,
            "contract": "contracts/originforge/registerFacet.sol:RegisterFacet",
            "label": "contracts",
            "offset": 0,
            "slot": "0",
            "type": "t_mapping(t_string_memory_ptr,t_address)"
          },
          {
            "astId": 11993,
            "contract": "contracts/originforge/registerFacet.sol:RegisterFacet",
            "label": "users",
            "offset": 0,
            "slot": "1",
            "type": "t_mapping(t_address,t_struct(User)11979_storage)"
          },
          {
            "astId": 11998,
            "contract": "contracts/originforge/registerFacet.sol:RegisterFacet",
            "label": "items",
            "offset": 0,
            "slot": "2",
            "type": "t_mapping(t_uint256,t_struct(Item)11984_storage)"
          }
        ],
        "numberOfBytes": "96"
      },
      "t_struct(Item)11984_storage": {
        "encoding": "inplace",
        "label": "struct Item",
        "members": [
          {
            "astId": 11981,
            "contract": "contracts/originforge/registerFacet.sol:RegisterFacet",
            "label": "itemId",
            "offset": 0,
            "slot": "0",
            "type": "t_uint256"
          },
          {
            "astId": 11983,
            "contract": "contracts/originforge/registerFacet.sol:RegisterFacet",
            "label": "price",
            "offset": 0,
            "slot": "1",
            "type": "t_uint256"
          }
        ],
        "numberOfBytes": "64"
      },
      "t_struct(User)11979_storage": {
        "encoding": "inplace",
        "label": "struct User",
        "members": [
          {
            "astId": 11976,
            "contract": "contracts/originforge/registerFacet.sol:RegisterFacet",
            "label": "name",
            "offset": 0,
            "slot": "0",
            "type": "t_string_storage"
          },
          {
            "astId": 11978,
            "contract": "contracts/originforge/registerFacet.sol:RegisterFacet",
            "label": "tokenId",
            "offset": 0,
            "slot": "1",
            "type": "t_uint256"
          }
        ],
        "numberOfBytes": "64"
      },
      "t_uint256": {
        "encoding": "inplace",
        "label": "uint256",
        "numberOfBytes": "32"
      }
    }
  }
}