{
  "address": "0x197988D24d09eE102EE62CdC62A2f348ba493136",
  "abi": [
    {
      "inputs": [],
      "name": "getDatas",
      "outputs": [
        {
          "internalType": "string",
          "name": "",
          "type": "string"
        },
        {
          "internalType": "string",
          "name": "",
          "type": "string"
        }
      ],
      "stateMutability": "view",
      "type": "function"
    },
    {
      "inputs": [
        {
          "internalType": "string",
          "name": "_msg1",
          "type": "string"
        },
        {
          "internalType": "string",
          "name": "_msg2",
          "type": "string"
        }
      ],
      "name": "setDatas",
      "outputs": [],
      "stateMutability": "nonpayable",
      "type": "function"
    }
  ],
  "args": [],
  "numDeployments": 1,
  "solcInputHash": "e1a4cf28d36a33f02057da2b5039904e",
  "bytecode": "0x608060405234801561001057600080fd5b50610549806100206000396000f3fe608060405234801561001057600080fd5b50600436106100365760003560e01c80636d34a7751461003b578063fab11dc41461005a575b600080fd5b61004361006f565b604051610051929190610294565b60405180910390f35b61006d610068366004610365565b61019b565b005b606080600080016000600101818054610087906103c9565b80601f01602080910402602001604051908101604052809291908181526020018280546100b3906103c9565b80156101005780601f106100d557610100808354040283529160200191610100565b820191906000526020600020905b8154815290600101906020018083116100e357829003601f168201915b50505050509150808054610113906103c9565b80601f016020809104026020016040519081016040528092919081815260200182805461013f906103c9565b801561018c5780601f106101615761010080835404028352916020019161018c565b820191906000526020600020905b81548152906001019060200180831161016f57829003601f168201915b50505050509050915091509091565b6101a36101c1565b60006101af8382610453565b5060016101bc8282610453565b505050565b7fc8fcad8db84d3cc18b4c41d551ea0ee66dd599cde068d998e57d5e09332c131c600401546001600160a01b0316331461024c5760405162461bcd60e51b815260206004820152602260248201527f4c69624469616d6f6e643a204d75737420626520636f6e7472616374206f776e60448201526132b960f11b606482015260840160405180910390fd5b565b6000815180845260005b8181101561027457602081850181015186830182015201610258565b506000602082860101526020601f19601f83011685010191505092915050565b6040815260006102a7604083018561024e565b82810360208401526102b9818561024e565b95945050505050565b634e487b7160e01b600052604160045260246000fd5b600082601f8301126102e957600080fd5b813567ffffffffffffffff80821115610304576103046102c2565b604051601f8301601f19908116603f0116810190828211818310171561032c5761032c6102c2565b8160405283815286602085880101111561034557600080fd5b836020870160208301376000602085830101528094505050505092915050565b6000806040838503121561037857600080fd5b823567ffffffffffffffff8082111561039057600080fd5b61039c868387016102d8565b935060208501359150808211156103b257600080fd5b506103bf858286016102d8565b9150509250929050565b600181811c908216806103dd57607f821691505b6020821081036103fd57634e487b7160e01b600052602260045260246000fd5b50919050565b601f8211156101bc576000816000526020600020601f850160051c8101602086101561042c5750805b601f850160051c820191505b8181101561044b57828155600101610438565b505050505050565b815167ffffffffffffffff81111561046d5761046d6102c2565b6104818161047b84546103c9565b84610403565b602080601f8311600181146104b6576000841561049e5750858301515b600019600386901b1c1916600185901b17855561044b565b600085815260208120601f198616915b828110156104e5578886015182559484019460019091019084016104c6565b50858210156105035787850151600019600388901b60f8161c191681555b5050505050600190811b0190555056fea2646970667358221220cef0f87f20936532bbeecf15f29a6b70f47c380902f3fa0321ca047e7ee730ff64736f6c63430008160033",
  "devdoc": {
    "kind": "dev",
    "methods": {},
    "version": 1
  },
  "userdoc": {
    "kind": "user",
    "methods": {},
    "version": 1
  },
  "storageLayout": {
    "storage": [
      {
        "astId": 10,
        "contract": "contracts/openforge/adminFacet.sol:AdminFacet",
        "label": "s",
        "offset": 0,
        "slot": "0",
        "type": "t_struct(AppStorage)2167_storage"
      }
    ],
    "types": {
      "t_string_storage": {
        "encoding": "bytes",
        "label": "string",
        "numberOfBytes": "32"
      },
      "t_struct(AppStorage)2167_storage": {
        "encoding": "inplace",
        "label": "struct AppStorage",
        "members": [
          {
            "astId": 2164,
            "contract": "contracts/openforge/adminFacet.sol:AdminFacet",
            "label": "msg1",
            "offset": 0,
            "slot": "0",
            "type": "t_string_storage"
          },
          {
            "astId": 2166,
            "contract": "contracts/openforge/adminFacet.sol:AdminFacet",
            "label": "msg2",
            "offset": 0,
            "slot": "1",
            "type": "t_string_storage"
          }
        ],
        "numberOfBytes": "64"
      }
    }
  }
}